:020000040800F2
:1000000000A00020112D00088D2B00088F2B000868
:10001000912B0008932B0008952B0008000000008E
:10002000000000000000000000000000972B000806
:10003000992B0008000000009B2B00089D2B000856
:10004000612D0008612D0008612D0008612D000858
:10005000612D0008612D0008612D0008612D000848
:10006000612D0008612D0008612D0008612D000838
:10007000612D0008612D0008612D0008612D000828
:10008000612D0008612D0008612D000800000000AE
:10009000000000000000000000000000612D0008CA
:1000A000612D0008612D0008612D0008612D0008F8
:1000B000612D00080000000000000000612D000814
:1000C000612D0008612D0008612D0008612D0008D8
:1000D000612D0008612D0008612D0008612D0008C8
:1000E000612D0008612D00080000000000000000E4
:1000F0000000000000000000000000000000000000
:1001000000000000000000000000000000000000EF
:100110000000000000000000612D00080000000049
:10012000612D0008612D0008612D0008612D000877
:10013000612D000800000000000000000000000029
:10014000612D0008612D0008612D000800000000ED
:10015000612D0008612D0008612D0008612D000847
:10016000612D0008612D0008000000000000000063
:1001700000000000612D00080000000000000000E9
:10018000612D0008612D0008612D000800000000AD
:1001900010B5054C237833B9044B13B10448AFF3C1
:1001A00000800123237010BD8802002000000000A1
:1001B0004C3D000808B5034B1BB103490348AFF39E
:1001C000008008BD000000008C0200204C3D0008AB
:1001D00001F0FF01102A2BDB10F0070F08D010F8F8
:1001E000013B013A8B422DD010F0070F42B3F6D1FC
:1001F000F0B441EA012141EA014122F007047FF015
:1002000000070023F0E80256083C85EA010586EA6B
:10021000010685FA47F5A3FA87F586FA47F6A5FAA7
:1002200087F68EB9EED1F0BC01F0FF0102F00702B3
:1002300032B110F8013B013A83EA010313B1F8D15E
:100240000020704701387047002D06BF354603383F
:10025000073815F0010F07D1013015F4807F02BF78
:10026000013015F4C03F0130F0BC0138704700BFC9
:1002700008B5324C204600F04DF90022B6EE000AD7
:100280000521204600F0E0F90022B6EE000A062122
:10029000204600F0D9F90022B6EE000A08212046D7
:1002A00000F0D2F90022B6EE000A0921204600F043
:1002B000CBF904F1080000F0D1FA16E000229FED1E
:1002C000200A04211D4800F0BFF91CE000229FED28
:1002D0001C0A0721194800F0B7F921E000229FED20
:1002E000180A0A21154800F0AFF908214FF0904094
:1002F00000F090FC0028E1D00022B6EE000A0421B4
:100300000E4800F0A1F980210E4800F083FC00287F
:10031000DCD00022B6EE000A0721084800F094F96C
:100320000821084800F076FC0028D7D00022B6EE5D
:10033000000A0A21014800F087F9D6E700000020F2
:10034000000000000004004800B585B08DF80C10D6
:100350008DF80D20818800684FF47A730093022392
:1003600003AA00F0FDFDB0FA80F0400905B05DF889
:1003700004FB30B585B00446154604AA02F8011DF9
:1003800081884FF47A7300930123006800F0E8FD40
:1003900010B1002005B030BDA18820684FF47A73F9
:1003A000009301232A4600F099FEB0FA80F040093C
:1003B000F0E710B582B00C460DF107020021FFF7FF
:1003C000D8FF9DF80730C3F30013237002B010BDAF
:1003D00030B583B005460DF107020021FFF7C9FFD4
:1003E00004469DF8072002F07F0242F010028DF8CB
:1003F000072000212846FFF7A7FF2040C0B203B026
:1004000030BD70B582B006460DF107020021FFF73E
:10041000B0FF04469DF8075005F06F028DF80720E5
:1004200000213046FFF790FF0440E4B215F0800F42
:1004300002D1204602B070BD012000F0A5FA9DF85F
:10044000072042F080028DF8072000213046FFF798
:100450007BFF0440EDE7000070B584B0F3EE087A4E
:10046000B4EEE70AF1EE10FA2FDB0646DFED227A52
:10047000B4EEE70AF1EE10FA2DD8DFED207A20EE87
:10048000270ADFED1F7A87EE800A02F06BFCFCEE94
:10049000C07ACDED017A9DF80450013DEDB20DF129
:1004A0000F013046FFF785FF04469DF80F30C3B1BA
:1004B0002A46FE213046FFF747FF0440E4B29DF88C
:1004C0000F30A3B1204604B070BD0E4B0E4A9C21E4
:1004D0000E4802F077FC0E4B0B4A9D210B4802F0B0
:1004E00071FC3046FFF774FF0440E4B2E0E73046A9
:1004F000FFF787FF0440E5E700C0BE4400008045E9
:1005000020BCBE4B2C400008683D00083C40000861
:100510006440000870B503689BB305468379B3B3A4
:100520001426102200212846FFF70EFF044632460B
:1005300001212846FFF708FF0440E4B20022FA2117
:100540002846FFF701FF04400022FB212846FFF761
:10055000FBFE04400022FC212846FFF7F5FE044084
:100560001022FD212846FFF7EFFE04409FED090A07
:100570002846FFF771FF04402846FFF742FF20405E
:1005800070BD054B054A4621054802F01BFC0426B8
:10059000C7E700BF00007A4478400008843D0008A7
:1005A0003C4000082DE9F8430F2930D807460C4697
:1005B00091469846B2F5805F2FD8B3F5805F32D868
:1005C0008E00F6B2B11DD2B201F0FE01FFF7BCFE03
:1005D0000546F11DC9F30722C9B23846FFF7B4FE3C
:1005E0000540EDB2A11C89005FFA88F201F0FC0120
:1005F0003846FFF7A9FE054006F10901C8F30722B6
:10060000C9B23846FFF7A0FE2840BDE8F883094B81
:10061000094ABA21094802F0D5FB094B064ABD2117
:10062000064802F0CFFB074B034AC021034802F003
:10063000C9FB00BF94400008943D00083C400008FE
:10064000A4400008B440000838B5B5EEC00AF1EE89
:1006500010FA2FDB05460C46F7EE007AB4EEE70AF7
:10066000F1EE10FA2CD8B5EE400AF1EE10FA2DD0CA
:10067000F7EE007AB4EE670AF1EE10FA2CD08AB3E6
:10068000DFED1F7A20EE270A02F06CFBBCEEC00AF9
:100690001C4A10EE103A02EB4303B3F86C3064B31B
:1006A0002202013A1344C3F30B0321462846FFF705
:1006B00079FF38BD144B154ACE21154802F082FB54
:1006C000144B124ACF21124802F07CFB4FF48053A6
:1006D0000022FFF767FFECE700234FF48052FFF79B
:1006E00061FFE6E7DFED0C7A20EE270A02F03AFB25
:1006F000FCEEC07A17EE903AD1E72246D2E700BF6F
:1007000000007F43683D0008C8400008B43D000871
:100710003C400008DC40000800F07F4530B583B065
:10072000044602AD05F8011D00220189406800F071
:1007300078FA4FF47A7301222946206801F0EBFC25
:10074000054601222189606800F06BFAB5FA85F050
:10075000400903B030BD38B504460D460022018A79
:10076000C06800F05EFA29462046FFF7D7FF38BD83
:1007700011F0800F13D170B50E4605462121FFF709
:10078000EAFF044646F080012846FFF7E4FF0440F4
:10079000E4B220212846FFF7DEFF204070BD002094
:1007A0007047072901D90020704770B50D460646ED
:1007B0002121FFF7D0FF044645F010013046FFF736
:1007C000CAFF0440E4B220213046FFF7C4FF2040B6
:1007D00070BDF0B583B005460027012622E0542302
:1007E00003FB07432B449B7E02A901F8013D4FF414
:1007F0007A730122286801F08EFC002814BF0026BD
:1008000006F001060134E4B2532CE8D9012229890B
:10081000686800F006FA40212846FFF79CFF064072
:100820000137FFB2052F16D847F040012846FFF7E1
:1008300092FF064080212846FFF78DFF06400122E7
:10084000298AE86800F0EDF900222989686800F03B
:10085000E8F90024D8E7304603B0F0BD38B50368A6
:10086000002B35D00446C368002B37D04369002BDA
:100870003AD0406800283DD00122218900F0D1F90A
:100880000022218B606900F0CCF94FF4FA7000F07F
:100890007BF80122218B606900F0C3F90421204616
:1008A000FFF77FFF054632212046FFF761FF054035
:1008B000EDB220212046FFF74EFF05400C212046D7
:1008C000FFF749FF05402046FFF783FF284038BD6A
:1008D0000B4B0C4A2F210C4802F074FA0B4B094ABF
:1008E0003021094802F06EFA094B064A31210648C8
:1008F00002F068FA074B034A3221034802F062FA19
:10090000F0400008D43F00080C41000834410008C2
:10091000504100086C41000810B50446094B1868A6
:10092000094BA3FB0030800900F084F808B10120D6
:1009300010BD002221464FF0FF3000F047F80020A4
:10094000F6E700BF1C020020D34D621010B5032053
:1009500000F02AF80020FFF7DFFF10B10124204645
:1009600010BD044602F0CAF8F9E70000024A136815
:1009700001331360704700BFB0020020014B1868BC
:10098000704700BFB002002038B50446FFF7F6FFFD
:100990000546B4F1FF3F00D00134FFF7EFFF401BE5
:1009A000A042FAD338BD0000074AD36823F4E063BD
:1009B0001B041B0C000200F4E060184340F0BF6011
:1009C00040F40030D060704700ED00E030B4174BC9
:1009D000DB68C3F30223C3F10704042C28BF0424FB
:1009E0001D1D062D18D9033B4FF0FF3505FA04F401
:1009F00021EA0401994005FA03F322EA03031943AB
:100A000000280BDB0901C9B200F1604000F561402C
:100A100080F8001330BC70470023E5E700F00F00BA
:100A20000901C9B2024B1954F4E700BF00ED00E020
:100A300014ED00E00138B0F1807F0AD2064B586017
:100A4000064AF02182F823100020986007221A60DD
:100A500070470120704700BF10E000E000ED00E0AB
:100A6000042805D0054A136823F004031360704777
:100A7000024A136843F004031360704710E000E07B
:100A8000704708B5FFF7FCFF08BD0000F0B482B066
:100A9000002336E0032400E00024B4403C43023548
:100AA000584E46F82540584C2568D44304EA0506BC
:100AB0004F6817F4803F01D042EA0506524D2E6080
:100AC0006D6804EA05064F6817F4003F01D042EA5A
:100AD00005064D4D6E60AD6804EA05064F6817F4D3
:100AE000801F01D042EA0506474DAE60ED682C40FC
:100AF0004E6816F4001F01D042EA0504424AD46051
:100B000001330A6832FA03F478D001249C40224071
:100B1000F6D04D68022D01D0122D10D1DE08083616
:100B200050F826C003F00705AF000F25BD402CEAA2
:100B3000050C0D69BD4045EA0C0540F826500668D5
:100B40005F000325BD40ED4305EA060C4E6806F044
:100B50000306BE4046EA0C0606604E6806F1FF3CFE
:100B6000BCF1010F03D9112E01D0122E10D18668CD
:100B700005EA060CCE68BE4046EA0C06866046686A
:100B800026EA04044E68C6F300169E4026434660DB
:100B9000C46825408C68BC402C43C4604C6814F089
:100BA000805FADD0194C256E45F001052566246E99
:100BB00004F001040194019C9D08AE1C114C54F8F2
:100BC000267003F00304A6000F24B44027EA0407AC
:100BD000B0F1904F3FF460AF0D4CA0420AD004F545
:100BE0008064A04208D004F58064A0423FF452AF74
:100BF000072452E7012450E702244EE702B0F0BC7C
:100C0000704700BF00000140000401400010024096
:100C1000000400480369194201D1002070470120F7
:100C200070470AB9816270478161704703689A69A9
:100C300012F0020F01D000229A6203689A6912F042
:100C4000010F03D19A6942F001029A61704770B4B2
:100C5000039E05686868740D04F4806444F07F7432
:100C600044F4583444F47F7444F0030420EA04004C
:100C7000C1F3090141EA024119433143014369606B
:100C800070BC704770B504460D46164603689B69F4
:100C900013F0100F1CD023689A6912F0200F19D19D
:100CA000B5F1FF3FF7D0FFF769FE801BA84201D8DE
:100CB000002DF0D1636C43F020036364202384F89B
:100CC0004130002384F8423084F84030012020E095
:100CD00000201EE01022DA6123682025DD61204615
:100CE000FFF7A4FF2268536823F0FF7323F48B33CC
:100CF00023F4FF7323F001035360636C43F0040398
:100D0000636484F84150002384F8423084F8403012
:100D1000012070BD70B504460D46164623689B69D8
:100D200013F0020F1DD1324629462046FFF7AAFFD5
:100D3000C8B9B5F1FF3FF1D0FFF720FE801BA842F4
:100D400001D8002DEAD1636C43F0200363642023B3
:100D500084F84130002384F8423084F84030012088
:100D600000E0002070BD0120FCE7F8B505460F4605
:100D700016461C462B689B6937EA03030CBF012308
:100D80000023B34218D1B4F1FF3FF3D0FFF7F6FDD3
:100D9000069BC01AA04201D8002CEBD16B6C43F02B
:100DA00020036B64202385F84130002385F842300E
:100DB00085F84030012000E00020F8BD70B5054600
:100DC0000C4616462B689B6913F0200F1AD1324649
:100DD00021462846FFF756FFB0B9FFF7CFFD801B2D
:100DE000A04201D8002CEDD16B6C43F020036B6462
:100DF000202385F84130002385F8423085F84030C3
:100E0000012070BD0020FCE70120FAE770B5044620
:100E10000D46164623689B6913F0040F3ED13246F7
:100E200029462046FFF72EFF0146002838D12368C7
:100E30009A6912F0200F13D1FFF7A0FD801BA84282
:100E400001D8002DE6D1636C43F0200363642023B6
:100E500084F84130002384F840300121084670BDF9
:100E60009A6912F0040F02D0228D002AF6D12022B6
:100E7000DA6121684B6823F0FF7323F48B3323F48A
:100E8000FF7323F001034B600023636484F8412067
:100E900084F8423084F840300121DFE70021DDE7AB
:100EA0000121DBE7002859D010B5044690F8413005
:100EB000002B43D0242384F841302268136823F0A8
:100EC000010313606368226823F070631361226872
:100ED000936823F400439360E368012B33D0A36845
:100EE000226843F404439360E368022B31D0226804
:100EF000536843F0007343F4004353602268D3689F
:100F000023F40043D360236962691343A169226813
:100F100043EA0123D360E369216A22680B4313602B
:100F20002268136843F001031360002060642023EB
:100F300084F84130206384F8420010BD80F84030CE
:100F400001F0F6FCB6E7A368226843F4004393601F
:100F5000CAE723684FF400625A60C8E7012070476F
:100F60002DE9F04383B090F84150EDB2202D40F0D0
:100F7000A48090F84040012C00F0A48098461746C9
:100F80000E4604464FF0010980F84090FFF7F6FC4A
:100F90000546009019234A464FF400412046FFF7CA
:100FA000E4FE002840F09080212384F84130102393
:100FB00084F84230002363646762A4F82A80636384
:100FC000638D9BB2FF2B0AD9FF222285424B0093EF
:100FD0004FF0807331462046FFF739FE18E0628DEE
:100FE00092B222853C4B00934FF00073D2B231464F
:100FF0002046FFF72CFE0BE0628D92B22285002383
:1010000000934FF00073D2B231462046FFF71FFE27
:10101000638D9BB2002B33D02A460A992046FFF7F6
:1010200079FE002852D1626A236812789A62636A54
:1010300001336362638D013B9BB26385238D013B6A
:101040009BB22385628D92B2002AE1D0002BDFD1C2
:1010500000950A9B002280212046FFF786FE00288B
:1010600036D1638D9BB2FF2BC6D9FF222285002388
:1010700000934FF0807331462046FFF7E8FDC7E745
:101080002A460A992046FFF799FE034610BB2268BC
:101090002021D1612068426822F0FF7222F48B3255
:1010A00022F4FF7222F00102426084F84110002213
:1010B00084F8422084F8402000E00223184603B060
:1010C000BDE8F0830223F9E70123F7E70123F5E701
:1010D0000123F3E70123F1E7002000802DE9F0432D
:1010E00083B090F84150EDB2202D40F0A48090F8EC
:1010F0004040012C00F0A480984617460E46044656
:101100004FF0010980F84090FFF738FC0546009049
:1011100019234A464FF400412046FFF726FE0028D7
:1011200040F09080222384F84130102384F842302C
:10113000002363646762A4F82A806363638D9BB2B3
:10114000FF2B0AD9FF222285424B00934FF0807378
:1011500031462046FFF77BFD18E0628D92B2228572
:101160003C4B00934FF00073D2B231462046FFF75C
:101170006EFD0BE0628D92B22285002300934FF04A
:101180000073D2B231462046FFF761FD638D9BB2FA
:10119000002B33D02A460A992046FFF737FE002855
:1011A00052D123685A6A636A1A70636A01336362B0
:1011B000238D013B9BB22385628D013A92B26285F9
:1011C000628D92B2002AE1D0002BDFD100950A9BFC
:1011D000002280212046FFF7C8FD002836D1638D0C
:1011E0009BB2FF2BC6D9FF222285002300934FF02C
:1011F000807331462046FFF72AFDC7E72A460A9941
:101200002046FFF7DBFD034610BB22682021D16199
:101210002068426822F0FF7222F48B3222F4FF72BF
:1012200022F00102426084F84110002284F842203A
:1012300084F8402000E00223184603B0BDE8F083A4
:101240000223F9E70123F7E70123F5E70123F3E799
:101250000123F1E70024008090F84130DBB2202B1D
:1012600024D190F84030012B22D0012380F8403067
:10127000242380F841300268136823F001031360CF
:101280000268136823F480531360026813681943DB
:1012900011600268136843F001031360202380F893
:1012A0004130002380F840301846704702207047D4
:1012B0000220704790F84130DBB2202B22D190F809
:1012C0004030012B20D0012380F84030242380F8C7
:1012D00041300268136823F0010313600268136849
:1012E00023F4706343EA012111600268136843F03C
:1012F00001031360202380F84130002380F8403040
:10130000184670470220704702207047024B186849
:1013100000F4C060704700BF00700040B0F5007F6F
:101320000FD01F4B1B6803F4C063B3F5806F34D03C
:101330001B4A136823F4C06343F4806313600020E6
:101340007047174B1B6803F4C063B3F5007F22D0CE
:10135000134A136823F4C06343F400731360114B02
:101360001A68322303FB02F30F4AA2FB03239B0CF0
:10137000013300E0013B0A4A526912F4806F01D048
:10138000002BF7D1064B5B6913F4806F01D100206D
:10139000704703207047002070470020704700BF4F
:1013A000007000401C02002083DE1B4330B583B078
:1013B0000546204B9B6D13F0805F0BD0FFF7A6FF17
:1013C000B0F5007F17D0802D1FD82DD0702D2DD0D7
:1013D00000211BE0174CA36D43F08053A365A36D60
:1013E00003F080530193019BFFF790FFA36D23F05F
:1013F0008053A365E4E7802D03D9A02D03D90221F2
:1014000004E0002102E0012100E003210A4A136800
:1014100023F007030B431360136803F007038B42A9
:1014200006D0012003B030BD0221EFE70121EDE736
:101430000020F7E70010024000200240314A936884
:10144000D26802F0030213F00C030AD00C2B06D072
:10145000042B1FD0082B20D00020014610E0012AC9
:10146000F6D1284A126812F0080F0CD1254AD2F89A
:101470009420C2F30322244951F8221043B10020E2
:101480000C2B0DD070471F4A1268C2F30312F2E70B
:101490000846F5E71D480021F2E71D480021EFE767
:1014A000184BDA6802F00302DB68C3F3021301335E
:1014B000022A0AD0032A1AD0B1FBF3F3114AD068EA
:1014C000C0F3062000FB03F008E01048B0FBF3F384
:1014D0000C4AD068C0F3062000FB03F0094BDB6820
:1014E000C3F3416301335B00B0FBF3F0CAE7084884
:1014F000B0FBF3F3034AD068C0F3062000FB03F00F
:10150000ECE700BF00100240E43F00080024F400B4
:1015100000127A00002800F0FF82F0B583B0044684
:10152000944B9D6805F00C05DE6806F00306036821
:1015300013F0100F5DD0E5B10C2D18D0E369002B2E
:1015400000F0B7808B4A136843F001031360FFF784
:1015500015FA0746874B1B6813F0020F40F0968080
:10156000FFF70CFAC01B0228F4D90323E2E2012E94
:10157000E4D1804B1B6813F0020F03D0E369002B0A
:1015800000F0CD82606A7B4B1B6813F0080F5DD0C2
:10159000784B1B6803F0F00398425ED9FFF706FF13
:1015A000002840F0BE82734B1A6842F008021A60AD
:1015B0001A6822F0F002616A0A431A605A6822F43B
:1015C0007F42216A42EA01225A60FFF737FF694BE6
:1015D0009B68C3F30313684AD35C03F01F03D8402E
:1015E000664B18600020FFF797F90346002840F08B
:1015F000A182236813F0010F7AD0082D6FD00C2D33
:101600006BD06368B3F5803F00F09280B3F5A02FF4
:1016100000F09480574B1A6822F480321A601A68DE
:1016200022F480221A606368002B00F09480FFF798
:10163000A5F907464F4B1B6813F4003F58D1FFF73D
:101640009DF9C01B6428F5D9032373E2494BD3F8F5
:1016500094301B0903F0F0039EE7464B1A6842F0F2
:1016600008021A601A6822F0F002616A0A431A60DE
:101670005A6822F47F42216A42EA01225A60606A73
:10168000FFF794FE0028A0D0012353E2394B1A68DB
:1016900042F008021A601A6822F0F002616A0A43F6
:1016A0001A605A6822F47F42216A42EA01225A6093
:1016B0009FE7304A136823F001031360FFF75EF9D8
:1016C00007462C4B1B6813F0020F92D0FFF756F918
:1016D000C01B0228F5D903232CE2032E91D1254B00
:1016E0001B6813F4003F03D06368002B00F01B82DB
:1016F000236813F0020F56D0042D43D00C2D3FD099
:10170000E368002B00F08F801A4A136843F480735B
:101710001360FFF733F90646164B1B6813F4806F0E
:1017200078D1FFF72BF9801B0228F5D9032301E2BA
:10173000104A136843F48033136074E703F1804365
:10174000A3F53C331A6842F480221A601A6842F406
:1017500080321A6067E7FFF711F90746054B1B68EF
:1017600013F4003FC4D0FFF709F9C01B6428F5D972
:101770000323DFE100100240144000081C02002097
:10178000022EBDD1AF4B1B6813F4806F03D0E3680A
:10179000002B00F0CA81AB4A536823F0FE43216955
:1017A00043EA01635360236813F0080F7DD0636937
:1017B000002B63D0A34BD3F89430A16903F010023F
:1017C000914210D003F00302022A00F0B08113F01E
:1017D000010F3CD19B4AD2F8943023F01003A16949
:1017E0000B43C2F89430974AD2F8943043F0010387
:1017F000C2F89430FFF7C2F80646924BD3F8943003
:1018000013F0020F51D1FFF7B9F8801B1128F4D95A
:1018100003238FE18B4A536823F0FE43216943EA97
:1018200001635360BFE7874A136823F48073136032
:10183000FFF7A4F80646834B1B6813F4806FB2D001
:10184000FFF79CF8801B0228F5D9032372E17D4A3B
:10185000D2F8943023F00103C2F89430FFF78EF8E9
:101860000646784BD3F8943013F0020FB2D0FFF74E
:1018700085F8801B1128F4D903235BE1714AD2F863
:10188000943023F00103C2F89430FFF777F806464E
:101890006C4BD3F8943013F0020F06D0FFF76EF8BC
:1018A000801B1128F4D9032344E1236813F0040FAB
:1018B00000F08D80634B9B6D13F0805F2ED1614BE8
:1018C0009A6D42F080529A659B6D03F080530193AC
:1018D000019B01265C4B1B6813F4807F20D0A3681A
:1018E00013F0010F38D05749D1F8902022F0800230
:1018F00003F080031343C1F89030A36813F0040F82
:1019000022D0D1F8902042F00402C1F89020D1F802
:10191000902042F00102C1F890202AE00026D9E789
:10192000494A136843F480731360FFF727F80746AA
:10193000454B1B6813F4807FD1D1FFF71FF8C01B04
:101940000228F5D90323F5E03E4AD2F8903043F05F
:101950000103C2F890300CE03A4BD3F8902022F00B
:101960000102C3F89020D3F8902022F00402C3F8BB
:101970009020A3688BB1FFF701F80746314BD3F8ED
:10198000903013F0020F21D1FEF7F8FFC01B41F297
:1019900088339842F2D90323CCE0FEF7EFFF0746E5
:1019A000284BD3F8903013F0020F08D0FEF7E6FF73
:1019B000C01B41F288339842F2D90323BAE0214A8E
:1019C000D2F8903023F08003C2F89030E6B9236853
:1019D00013F0200F3AD0A36AE3B11A4AD2F8983034
:1019E00043F00103C2F89830FEF7C8FF0646154BD6
:1019F000D3F8983013F0020F28D1FEF7BFFF801BF9
:101A00000228F4D9032395E00E4A936D23F0805306
:101A10009365DCE70B4AD2F8983023F00103C2F853
:101A20009830FEF7ABFF0646064BD3F8983013F01C
:101A3000020F0BD0FEF7A2FF801B0228F4D903236C
:101A400078E000BF0010024000700040E36A002B05
:101A50006FD00C2D71D0022B1BD0394B1A6822F09D
:101A600080721A60DA6822F00302DA60DA6822F023
:101A70008872DA60FEF782FF0446314B1B6813F070
:101A8000007F47D0FEF77AFF001B0228F5D9032319
:101A900050E02B4A136823F080731360FEF76EFF4B
:101AA0000546274B1B6813F0007F06D0FEF766FF44
:101AB000401B0228F5D903233CE0636B5A1EA36B3D
:101AC0001B0243EA0213226B1343E26B5208013AF2
:101AD00043EA4253226C5208013A43EA4263184AED
:101AE000D360136843F080731360D36843F080734E
:101AF000D360FEF743FF0446114B1B6813F0007FD1
:101B000006D1FEF73BFF001B0228F5D9032311E0A5
:101B100000230FE000230DE0012318467047012346
:101B200008E0012306E0012304E0012302E0012391
:101B300000E00023184603B0F0BD0123FAE700BF20
:101B400000100240002800F09A8070B504464E4B09
:101B50001B6803F007038B420CD24B4A136823F037
:101B600007030B431360136803F007038B4201D094
:101B7000012070BD0D46236813F0010F39D0636852
:101B8000032B09D0022B26D063BB404A126812F007
:101B9000020F06D10120ECE73C4A126812F0007FE8
:101BA0006FD03A498A6822F0030213438B60FEF734
:101BB000E5FE0646354B9B6803F00C036268B3EB09
:101BC000820F16D0FEF7DAFE801B41F2883398426E
:101BD000F0D90320CDE72D4A126812F4003FE0D17E
:101BE0000120C6E7294A126812F4806FD9D101207A
:101BF000BFE7236813F0020F06D0244A936823F04E
:101C0000F003A1680B4393601F4B1B6803F00703AD
:101C1000AB420CD91C4A136823F007032B43136013
:101C2000136803F00703AB4201D00120A1E723684A
:101C300013F0040F06D0154A936823F4E063E168BB
:101C40000B439360236813F0080F07D00F4A936883
:101C500023F46053216943EAC1039360FFF7EEFB6D
:101C60000A4B9B68C3F30313094AD35C03F01F03B9
:101C7000D840084B18600020FEF74EFE79E701209F
:101C80007047012075E700BF0020024000100240AD
:101C9000144000081C020020014B1868704700BF68
:101CA0001C020020F0B583B00446036813F4003F23
:101CB00069D0874B9B6D13F0805F1ED1844B9A6D6A
:101CC00042F080529A659B6D03F080530193019B13
:101CD0000126804A136843F480731360FEF74EFEBA
:101CE00005467C4B1B6813F4807F08D1FEF746FE47
:101CF000401B0228F5D9032502E00026E9E700256C
:101D000045BB734BD3F8903013F4407315D0226B5E
:101D10009A4212D06E4AD2F8903023F44073D2F82F
:101D2000901041F48031C2F89010D2F8901021F454
:101D30008031C2F89010C2F8903013F0010F10D12A
:101D400045B9634AD2F8903023F44073216B0B43BA
:101D5000C2F89030C6B15E4A936D23F0805393650C
:101D600012E0FEF70BFE0746594BD3F8903013F004
:101D7000020FE5D1FEF702FEC01B41F28833984204
:101D8000F2D90325DCE70025236813F0010F08D002
:101D90004F4AD2F8883023F0030361680B43C2F83E
:101DA0008830236813F0020F08D0494AD2F88830EF
:101DB00023F00C03A1680B43C2F88830236813F0AA
:101DC000040F08D0424AD2F8883023F03003E1688B
:101DD0000B43C2F88830236813F0200F08D03C4A28
:101DE000D2F8883023F4406321690B43C2F888306D
:101DF000236813F4007F08D0354AD2F8883023F4E2
:101E00004023216A0B43C2F88830236813F4806FA3
:101E100008D02F4AD2F8883023F44013616A0B436C
:101E2000C2F88830236813F0400F08D0284AD2F84F
:101E3000883023F4405361690B43C2F8883023682B
:101E400013F0800F08D0224AD2F8883023F44043A0
:101E5000A1690B43C2F88830236813F4807F08D04F
:101E60001B4AD2F8883023F44033E1690B43C2F8AF
:101E70008830236813F4005F0CD0154AD2F88830FC
:101E800023F04063A16A0B43C2F88830A36AB3F120
:101E9000006F13D0236813F4802F0CD00C4AD2F8B3
:101EA000883023F04063E16A0B43C2F88830E36A6C
:101EB000B3F1006F07D0284603B0F0BDD36843F4F8
:101EC0008013D360E6E7D36843F48013D360F2E76E
:101ED0000010024000700040F8B505460F46164657
:101EE0001C462B689B6837EA03030CBF01230023C1
:101EF000B34237D0B4F1FF3FF3D0FEF73FFD069B6E
:101F0000C01AA04201D2002CEBD12A68536823F0FA
:101F1000E00353606B68B3F5827F0BD0AB6AB3F517
:101F2000005F14D0012385F85D30002385F85C3014
:101F3000032018E0AB68B3F5004F02D0B3F5806F13
:101F4000ECD12A68136823F040031360E6E72A689F
:101F5000136823F4005313602A68136843F4005392
:101F60001360DFE70020F8BDF8B507460C461546BC
:101F70001E4602E0B6F1FF3F0BD13A68936823405A
:101F8000AB423BD0B4F5C06FF4D1002DF2D1137B3E
:101F9000F0E7FEF7F3FC069BC01AB04201D2002E18
:101FA000EBD13A68536823F0E00353607B68B3F5E4
:101FB000827F0BD0BB6AB3F5005F14D0012387F892
:101FC0005D30002387F85C30032018E0BB68B3F570
:101FD000004F02D0B3F5806FECD13A68136823F05C
:101FE00040031360E6E73A68136823F40053136074
:101FF0003A68136843F400531360DFE70020F8BD2C
:1020000070B582B004460D46164600920B4600227B
:102010004FF4C051FFF7A8FFB8B900962B46002235
:1020200080212046FFF758FFB8B900962B460022C2
:102030004FF4C0612046FFF797FF034650B1236E6F
:1020400043F020032366032304E0236E43F02003C0
:1020500023660323184602B070BD236E43F02003AD
:1020600023660323F6E7002853D010B50446002367
:10207000836290F85D30002B40D0022384F85D30FD
:102080002268136823F040031360E368B3F5E06F40
:1020900039D90022B3F5706F04D0B3F5E06F01D0E9
:1020A0000021A162216B21B9B3F5E06F2ED9022383
:1020B00023636368A1680B4321690B4361690B4388
:1020C000A16901F400710B43E1690B43216A0B43E1
:1020D000A06A216803430B60638B03F00403616A09
:1020E0000B43616B0B43E1680B43216813434B6067
:1020F00000202066012384F85D3010BD80F85C303C
:1021000000F0D6FCB9E74FF48052C3E70123236304
:10211000CFE7012070472DE9F04182B090F85C4094
:10212000012C00F0E4801E46154688460446012333
:1021300080F85C30FEF722FC074694F85D20D2B2AE
:10214000012A09D00220012384F85D30002384F89D
:102150005C3002B0BDE8F081B8F1000F00F0B9804A
:10216000002D00F0B880032384F85D30002323663F
:10217000C4F83880A587E5872364A4F84430A4F820
:1021800046302365E364A368B3F5004F1CD0236891
:102190001A6812F0400F03D11A6842F040021A6028
:1021A000E368B3F5E06F33D963680BB1012D1BD140
:1021B000A26B23681288DA60A36B0233A363E38FF8
:1021C000013B9BB2E3870FE02268136843F480432E
:1021D0001360DCE7FEF7D2FBC01BB04202D3B6F1BE
:1021E000FF3F7AD1002E7AD0E38F9BB2002B5BD0D9
:1021F00023689A6812F0020FECD0A26B1288DA60A2
:10220000A36B0233A363E38F013B9BB2E387EBE74E
:1022100063680BB1012D30D1E38F9BB2012B0BD939
:10222000A26B23681288DA60A36B0233A363E38F87
:10223000023B9BB2E38720E0A26B236812781A73FB
:10224000A36B0133A363E38F013B9BB2E38714E0ED
:10225000A36B1B781373A36B0133A363E38F013B61
:102260009BB2E38709E0FEF789FBC01BB04202D3B3
:10227000B6F1FF3F35D1002E35D0E38F9BB29BB135
:102280002268936813F0020FEDD0E38F9BB2012B0D
:10229000DED9A36B1B88D360A36B0233A363E38FE8
:1022A000023B9BB2E387E8E73A4631462046FFF718
:1022B000A7FE08B120232366A36833B901932368DE
:1022C000DA6801929B680193019B236E6BB9002031
:1022D00039E7012037E7012035E7032033E7032002
:1022E00031E703202FE703202DE701202BE7022011
:1022F0002FE7000030B4036A23F001030362036A8E
:102300004468826922F4803222F073020D682A4305
:1023100023F002038D682B43144DA84207D005F526
:10232000A055A84203D005F58065A84205D123F049
:102330000803CD682B4323F004030C4DA84207D0BB
:1023400005F5A055A84203D005F58065A84205D142
:1023500024F440754C692C438D692C4344608261A0
:102360004A684263036230BC704700BF002C0140E2
:1023700030B4036A23F480730362036A4268C46959
:1023800024F4803424F073040D682C4323F4007388
:102390008D6843EA0523124DA84219D0104DA8427A
:1023A00007D005F5A055A84203D005F58065A842E1
:1023B00007D122F440524D6942EA05128D6942EA82
:1023C00005124260C4614A68C263036230BC704750
:1023D00023F40063CD6843EA052323F48063DDE73B
:1023E000002C014030B4036A23F480530362026A74
:1023F0004468C36923F0807323F4E6430D6843EA1D
:10240000052322F400528D6842EA05320B4DA842A2
:1024100007D005F5A055A84203D005F58065A84270
:1024200004D124F480444D6944EA85144460C361B6
:102430004B680364026230BC704700BF002C01404F
:1024400030B4036A23F480330362036A4468426D44
:1024500022F4803222F070020D682A4323F4003304
:102460008D6843EA05430B4DA84207D005F5A055FA
:10247000A84203D005F58065A84204D124F4803435
:102480004D6944EA0524446042654A6882650362F6
:1024900030BC7047002C014030B4036A23F4801331
:1024A0000362026A4468436D23F0807323F4E043BF
:1024B0000D6843EA052322F400128D6842EA0552B2
:1024C0000B4DA84207D005F5A055A84203D005F54D
:1024D0008065A84204D124F480244D6944EA85240F
:1024E000446043654B68C365026230BC704700BFFF
:1024F000002C014003681A4A904202D0B0F1804F8C
:1025000003D123F070034A681343154A90420AD05E
:10251000B0F1804F07D002F5A052904203D002F5EF
:102520008062904203D123F44073CA68134323F0BE
:1025300080034A69134303608B68C3620B6883623C
:10254000074B984207D003F5A053984203D003F5F8
:102550008063984201D10B69036301234361704793
:10256000002C0140A8B110B5044690F83D305BB195
:10257000022384F83D30211D2068FFF7BBFF0123B3
:1025800084F83D30002010BD80F83C3000F030FB76
:10259000EEE701207047000030B4036A23F0100317
:1025A0000362036A4468826922F0807222F4E64280
:1025B0000D6842EA052223F020038D6843EA0513E3
:1025C000124DA84219D0114DA84207D005F5A055CB
:1025D000A84203D005F58065A84207D124F44064E1
:1025E0004D6944EA85048D6944EA8504446082614A
:1025F0004A688263036230BC704723F08003CD6871
:1026000043EA051323F04003DDE700BF002C01403F
:1026100038B590F83C30012B00F092800D4604460E
:10262000012380F83C30022380F83D30142A1ED864
:10263000DFE802F00B1D1D1D241D1D1D381D1D1D75
:102640004B1D1D1D5F1D1D1D72000068FFF752FE12
:102650002268936943F0080393612268936923F029
:10266000040393612268936929690B4393610123F1
:1026700084F83D30002084F83C0038BD0068FFF746
:102680008BFF2268936943F4006393612268936926
:1026900023F48063936122689369296943EA0123E3
:1026A0009361E4E70068FFF763FE2268D36943F0B3
:1026B0000803D3612268D36923F00403D36122683D
:1026C000D36929690B43D361D1E70068FFF78AFE1C
:1026D0002268D36943F40063D3612268D36923F489
:1026E0008063D3612268D369296943EA0123D361F6
:1026F000BDE70068FFF7A4FE2268536D43F00803AE
:1027000053652268536D23F0040353652268536DAB
:1027100029690B435365AAE70068FFF7BDFE2268ED
:10272000536D43F4006353652268536D23F4806353
:1027300053652268536D296943EA0123536596E77F
:1027400002209AE790F83C30012B25D030B40123C9
:1027500080F83C30022380F83D3002685368956869
:102760000E4CA24213D023F070030C68234325F0D3
:10277000800489682143536003689960012380F8CD
:102780003D30002380F83C30184630BC704723F4BD
:1027900070034C682343E6E702207047002C014099
:1027A00090F83C30012B3BD010B4012380F83C3032
:1027B000CB6823F440738A68134323F480634A6828
:1027C000134323F400630A68134323F480530A6914
:1027D000134323F400534A69134323F480438A6A62
:1027E000134323F470238A6943EA024302680D4CC1
:1027F000A24207D05364002380F83C3018465DF8AD
:10280000044B704723F470034C6A43EA045323F0EB
:102810008073CC69234323F00073096A0B43E9E713
:1028200002207047002C014070B588B0244BDA6C50
:1028300042F00102DA64DA6C02F001020192019ABC
:10284000DA6C42F00202DA64DB6C03F002030293FA
:10285000029B00224FF488714FF09040FEF7E1F99F
:10286000184E002201213046FEF7DBF949F60F032E
:102870000393002504950124059403A94FF090408B
:10288000FEF704F94FF4887303930494022305932D
:10289000069503A94FF09040FEF7F8F803940494CE
:1028A0000594069503A93046FEF7F0F8F823039344
:1028B0000495059403A93046FEF7E8F808B070BD0A
:1028C000001002400004004808B51548154B03608D
:1028D000154B4360002383600122C26003614361A2
:1028E0008361C3610362FEF7DDFA50B900210C4831
:1028F000FEF7B2FC50B900210948FEF7DBFC50B9E5
:1029000008BD4221094800F03DF8EFE7492107489A
:1029100000F038F8EFE75021044800F033F8EFE713
:10292000B4020020005400405B3D300088410008A4
:102930000268124B9A4200D0704700B587B04FF43E
:10294000C06301931223029301230393032304938F
:10295000042305930DEB03014FF09040FEF796F82A
:10296000074B9A6D42F400129A659B6D03F40013B5
:102970000093009B07B05DF804FB00BF00540040CB
:1029800000100240FEE7000000B5A5B04FF4007053
:10299000FEF7C4FC00283AD1022313934FF480724F
:1029A0001692402217921E931F9320931022219279
:1029B00022930823239313A8FEF7ACFD58BB0F23E3
:1029C0000E9303230F9300211091119112910EA8E1
:1029D000FFF7B8F818BB402301930023069301A822
:1029E000FFF760F9F8B9FFF757F9114BA3FB003077
:1029F0008009FEF71FF80420FEF732F80022114686
:102A00004FF0FF30FDF7E2FF25B05DF804FB8721B2
:102A10000848FFF7B7FF97210648FFF7B3FFA52146
:102A20000448FFF7AFFFAC210248FFF7ABFF00BF40
:102A3000D34D62109841000808B5FDF787FFFFF7F6
:102A4000A3FFFFF7F1FEFFF73FFF00F005F800F0EE
:102A5000FFF8FDF70DFCFEE708B51248124B0360C6
:102A60004FF4827343604FF4004383604FF4E0639C
:102A7000C3600023036143614FF400728261C3614C
:102A80000362436283620722C262036308234363D3
:102A9000FFF7E9FA00B908BD47210448FFF772FFC4
:102AA000F9E700BF0003002000300140A841000802
:102AB0000268114B9A4200D0704700B587B003F509
:102AC00060431A6E42F480521A661B6E03F4805300
:102AD0000093009BA02301930223029303930323FB
:102AE00004930523059301A94FF09040FDF7CEFF15
:102AF00007B05DF804FB00BF0030014000B583B0B3
:102B0000214B1A6E42F001021A661A6E02F001029F
:102B10000092009A9A6D42F080529A659B6D03F084
:102B200080530193019B0320FDF73EFF00221146D5
:102B30006FF00B00FDF74AFF002211466FF00A000C
:102B4000FDF744FF002211466FF00900FDF73EFF3C
:102B5000002211466FF00400FDF738FF00221146F5
:102B60006FF00300FDF732FF002211466FF0010005
:102B7000FDF72CFF002211464FF0FF30FDF726FF36
:102B800003B05DF804FB00BF001002407047FEE791
:102B9000FEE7FEE7FEE770477047704708B5FDF7B0
:102BA000E5FEFDF76EFF08BD0F49D1F8883043F40C
:102BB0007003C1F888300D4B1A6842F001021A60A8
:102BC000002098601A6822F0A85222F410221A609D
:102BD0004FF48052DA601A6822F480221A609861F9
:102BE0004FF000638B60704700ED00E00010024082
:102BF0000268094B9A4200D0704782B003F56443E3
:102C00001A6E42F400621A661B6E03F400630193AD
:102C1000019B02B0704700BF002C014002680A4BC4
:102C20009A4200D0704700B587B002230193029307
:102C30000023039304930123059301A90348FDF79F
:102C400025FF07B05DF804FB002C0140000400489C
:102C500000B597B02B482C4B03601F234360002323
:102C60008360C360036143618361FFF77BFC0028DD
:102C700033D1002313931493159313A92148FFF71D
:102C800061FD00282ED160230C9300230D930E9339
:102C90000F9310931193129308220CA91948FFF770
:102CA000B7FC20BB00230193029303930493059385
:102CB0004FF400520692079308934FF00072099266
:102CC0000A930B9301A90F48FFF76AFDA0B90D48BD
:102CD000FFF7A4FF17B05DF804FB41210B48FFF795
:102CE00051FEC6E749210948FFF74CFECBE75521C5
:102CF0000648FFF747FED5E765210448FFF742FE87
:102D0000E5E700BF64030020002C0140B841000843
:102D1000DFF834D0002103E00C4B5B584350043102
:102D20000B480C4B42189A42F6D30B4A02E00023A0
:102D300042F8043B094B9A42F9D3FFF735FF00F004
:102D400071F8FFF779FEFEE700A00020B04200080E
:102D5000000000208802002088020020A803002034
:102D6000FEE7000082B08DED010A0199C1F3C7535F
:102D7000A3F17F02162A0CDC002A10DB1048104158
:102D8000014208D04FF4800313410B4423EA0003AF
:102D90000BE0802A0DD09DED010A02B07047013290
:102DA00001F0004301D143F07E5300EE103A02B02F
:102DB0007047DDED017A37EEA70A02B0704700BF19
:102DC000FFFF7F001FB51C46094B1B680546D868EE
:102DD00052B1084B0091CDE9013207492B462246FA
:102DE00000F00EF800F0D2FB044B1A46F2E700BFE9
:102DF00020020020C8410008D54100080342000815
:102E00000EB403B5014603AB054853F8042B006824
:102E1000019300F05DF802B05DF804EB03B0704779
:102E20002002002070B50D4E0D4CA41BA4100025EF
:102E3000A54209D10B4E0C4C00F088FFA41BA41036
:102E40000025A54205D170BD56F8253098470135BB
:102E5000EEE756F8253098470135F2E7A042000822
:102E6000A0420008A0420008A44200080244034611
:102E7000934200D1704703F8011BF9E79368013BC7
:102E8000002B10B4936008DA9469A34201DB0A298D
:102E900003D15DF8044B00F0B9BA1368581C1060F8
:102EA000197008465DF8044B7047F8B506460F46A2
:102EB0001446D518AC4201D1002007E03A4614F878
:102EC000011B3046FFF7DAFF431CF3D1F8BD0000C9
:102ED0002DE9F04F0C469DB017461D46064618B129
:102EE00083690BB900F04AFC7C4B9C4258D1746852
:102EF000A38918075ED52369002B5BD000230993B3
:102F000020238DF8293030238DF82A3003954FF097
:102F1000010BB846454615F8013B0BB1252B54D1A2
:102F2000B8EB070A0BD053463A4621463046FFF726
:102F3000BCFF013000F0C280099B5344099398F80C
:102F40000030002B00F0BA8000234FF0FF32CDE9B3
:102F50000523049307938DF853301A93A84605224E
:102F600018F8011B5E48FDF733F9049B78BBD906BE
:102F700044BF20228DF853201A0744BF2B228DF81E
:102F800053202A782A2A2AD0079AA84600200A2500
:102F9000414611F8013B303B092B69D960B324E06D
:102FA000504B9C4201D1B468A2E74F4B9C4208BFF2
:102FB000F4689DE72146304600F07AFA00289DD05B
:102FC0004FF0FF301DB0BDE8F08FA846A2E7444A9D
:102FD000801A0BFA00F0184304904546BEE7039AA6
:102FE000111D12680391002A01DB079204E052428E
:102FF00043F002030792049398F800302E2B0ED171
:1030000098F801302A2B38D1039B1A1D1B680392B4
:10301000002BB8BF4FF0FF3308F102080593334D82
:1030200098F8001003222846FDF7D2F840B140235B
:10303000401B03FA00F0049B034308F101080493CA
:1030400098F800102A488DF82810062208F1010788
:10305000FDF7BEF8002837D0264B1BBB039B073378
:1030600023F0070308330393099B4B44099350E76C
:1030700005FB0232012088468AE7002308F1010897
:10308000059319460A25404610F8012B303A092AC3
:1030900003D9002BC3D00591C1E705FB0121012312
:1030A0008046F0E703AB00932246134B04A9304659
:1030B000AFF30080B0F1FF3F8146D5D1A3895B0615
:1030C0003FF57EAF09987DE703AB009322460A4B9C
:1030D00004A9304600F088F8ECE700BF5C42000825
:1030E000084200087C4200083C4200080E420008EA
:1030F0001242000800000000AB2E00082DE9F04746
:1031000091461F468A680B69DDF820809342B8BF5C
:103110001346C9F8003091F8432006460C4612B118
:103120000133C9F800302368990642BFD9F800304E
:103130000233C9F80030256815F0060507D104F1FF
:10314000190AE368D9F800209B1AAB4228DC94F8EE
:1031500043302268003318BF012392062DD404F1B6
:10316000430239463046C047013020D02368E56825
:10317000D9F8002003F00603042B08BFAD1AA3689A
:1031800022690CBF25EAE57500259342C4BF9B1A4E
:10319000ED184FF000091A344D451AD1002008E00F
:1031A0000123524639463046C047013003D14FF023
:1031B000FF30BDE8F0870135C3E7E1185A1C302025
:1031C00081F84300224494F8451082F843100233FA
:1031D000C5E70123224639463046C0470130E6D0D4
:1031E00009F10109D8E700002DE9F04301F1430C92
:1031F0000C46097E85B06E291746064698460C9AFD
:1032000000F0B38022D8632936D00AD8002900F014
:10321000B980582900F0838004F1420584F84210F7
:1032200032E0642901D06929F6D1206813680506C7
:1032300003F104012AD51B681160002B03DA2D224B
:103240005B4284F843206F480A2239E0732900F07A
:103250009D8008D86F2920D07029DDD1236843F0E4
:103260002003236003E0752917D07829D4D178236F
:1032700084F84530644855E01368191D1B681160D7
:1032800004F1420584F8423001238CE01B68116090
:1032900010F0400F18BF1BB2CFE713682568181D48
:1032A0001060280601D51B6802E06806FBD51B8864
:1032B00054486F2914BF0A220822002184F84310C1
:1032C0006568A560002DC0F29580216821F0040199
:1032D0002160002B3DD1002D40F08E806546082AEC
:1032E0000BD12368DB0708D5236962689A42DEBFE9
:1032F000302305F8013C05F1FF35ACEB05032361F4
:10330000CDF800803B4603AA21463046FFF7F6FE83
:1033100001304DD14FF0FF3005B0BDE8F0833948A2
:1033200084F84510136821681D1D1B6815600A0686
:103330000BD5CA0744BF41F0200121601BB92268A8
:1033400022F0200222601022B7E74D0648BF9BB250
:10335000EFE76546B3FBF2F102FB1133C35C05F8FE
:10336000013D0B460029F5D1B9E71368256861696D
:10337000181D106028061B6801D5196002E06A0656
:10338000FBD51980002323616546B9E71368191D31
:1033900011601D68626800212846FCF719FF08B11A
:1033A000401B606063682361002384F84330A7E713
:1033B00023692A4639463046C0470130AAD02368DF
:1033C0009B0713D4E068039B9842B8BF1846A3E755
:1033D00001234A4639463046C04701309AD001356C
:1033E000E368039A9B1AAB42F2DCEBE7002504F199
:1033F0001909F5E7002BACD1037884F8423004F1C9
:1034000042056CE7194200082A420008F8B50E464A
:103410001446054618B183690BB900F0AFF9214B8A
:103420009C422AD16C68A369A360A3891A072ED590
:10343000236963B323692068C01A6369F6B28342C3
:10344000374604DC2146284600F02EF928BBA36845
:10345000013BA36023685A1C22601E70636901301F
:10346000834204D0A389DB0719D50A2E17D1214640
:10347000284600F019F990B10FE00B4B9C4201D1A6
:10348000AC68D0E7094B9C4208BFEC68CBE721460B
:10349000284600F00DF80028CCD04FF0FF37384612
:1034A000F8BD00BF5C4200087C4200083C420008B6
:1034B000324B70B51D6806460C4625B1AB6913B991
:1034C000284600F05BF92E4B9C420FD16C68B4F992
:1034D0000C309AB215072CD4D00611D409223260D0
:1034E00043F04003A3814FF0FF303EE0254B9C4268
:1034F00001D1AC68EBE7244B9C4208BFEC68E6E7DF
:10350000510712D5616B41B104F14403994202D0D5
:10351000304600F021FA00236363A38923F02403DB
:10352000A3810023636023692360A38943F0080318
:10353000A38123694BB9A38903F42073B3F5007FFA
:1035400003D02146304600F0C7F9A28912F00103EA
:103550000CD00023A36063695B42A361236953B964
:10356000B4F90C3013F08000BAD170BD920758BF87
:103570006369A360F2E70020F7E700BF20020020A4
:103580005C4200087C4200083C42000808B5062066
:1035900000F0C2FA012000F0D7FB00008A892DE973
:1035A000F041054610070C4658D44B68002B05DC4B
:1035B0000B6C002B02DC0020BDE8F081E66A002ED7
:1035C000F9D0002312F480522F68216A2B6032D088
:1035D000606DA3895A0705D56368C01A636B0BB188
:1035E000236CC01A00230246E66A216A2846B047C7
:1035F000431CA38906D129681D2948D8294ACA40F5
:10360000D60744D500226260D9042269226004D51D
:10361000421C01D12B6803B96065616B2F600029E2
:10362000C9D004F14403994202D0284600F094F92D
:1036300000206063C0E701232846B047411CC8D181
:103640002B68002BC5D01D2B01D0162B01D12F606C
:10365000B1E7A38943F04003A381ADE70F69002FD1
:10366000A9D093070E6808BF4B690F6018BF0023ED
:10367000A6EB07088B60B8F1000F9CDD43463A4685
:10368000216AA66A2846B047002806DCA38943F0D1
:103690004003A3814FF0FF308EE70744A8EB0008FA
:1036A000E9E700BF0100402038B50B6905460C462C
:1036B000DBB118B183690BB900F060F80C4B9C4288
:1036C00009D16C68B4F90C307BB121462846BDE8BD
:1036D0003840FFF763BF074B9C4201D1AC68F1E76C
:1036E000054B9C4208BFEC68ECE7002038BD00BFEA
:1036F0005C4200087C4200083C420008002310B5F0
:103700000446C0E90033836081814366C281C0E919
:1037100004338361194608225C30FFF7A7FB054B91
:103720006362054BA362054BE362054B246223638E
:1037300010BD00BF513B0008733B0008AB3B0008C5
:10374000CF3B0008014900F085B800BFA93600084A
:1037500070B54A1E682555430E4605F1740100F008
:1037600049F9044640B10021C0E900160C30A060C0
:1037700005F16802FFF77AFB204670BD836910B53A
:10378000044633BBC0E912330365124B124A1B686F
:103790008262984204BF0123836100F01FF86060D9
:1037A000204600F01BF8A060204600F017F8002229
:1037B000E06004216068FFF7A1FF01220921A068F1
:1037C000FFF79CFF02221221E068FFF797FF012319
:1037D000A36110BD0442000845370008F8B51B4B33
:1037E0001E68B369074613B93046FFF7C7FF48366E
:1037F000D6E90134013B03D5336833B13668F7E7C6
:10380000B4F90C506DB16834F4E704213846FFF781
:103810009FFF30600028F1D10C233B600446204616
:10382000F8BD0B4B6566C4E90055A560C4E90335D6
:10383000C4E905550822294604F15C00FFF716FB90
:10384000C4E90D55C4E91255E9E700BF0442000878
:103850000100FFFF2DE9F8438046894600F1480446
:10386000002614B93046BDE8F883D4E90175013F5C
:1038700001D52468F5E7AB89012B07D9B5F90E30DE
:10388000013303D029464046C84706436835EEE772
:1038900070B50E46B1F90E10002996B014461D46BB
:1038A00007DA00232B60B3891A0610D44FF4806323
:1038B0000EE06A4600F0B2F90028F2DB019A02F449
:1038C0007042A2F500535A425A412A60EEE7402363
:1038D0000020236016B070BD8B8973B59D07064626
:1038E0000C4607D504F1470323602361012363617C
:1038F00002B070BD01AB6A46FFF7CAFF00990546EA
:10390000304600F077F848B9B4F90C309A05EFD496
:1039100023F0030343F00203A381E3E70D4BB362FB
:10392000A389206043F08003A381009B6361019B16
:1039300020615BB1B4F90E10304600F081F928B176
:10394000A38923F0030343F00103A381A3891D434B
:10395000A581CDE74537000838B50546002945D093
:1039600051F8043C0C1F002BB8BFE41800F08AF992
:103970001F4A1368104633B9636014602846BDE8D7
:10398000384000F080B9A3420CD9216862189342F4
:1039900004BF1A685B68636004BF52182260046049
:1039A000ECE713465A680AB1A242FAD919685818C6
:1039B000A0420BD120680144581882421960DDD121
:1039C000106852685A6001441960D7E702D90C2385
:1039D0002B60D3E7206821188A4204BF116852681F
:1039E000626004BF091821605C60C7E738BD00BF92
:1039F000A402002070B5CD1C25F0030508350C2D60
:103A000038BF0C25002D064601DBA94203D90C2343
:103A10003360002070BD00F035F9214A146821465A
:103A200091B9204C23681BB9304600F03DF8206066
:103A30002946304600F038F8431C24D10C2333606B
:103A4000304600F020F9E4E70B685B1B18D40B2B21
:103A50000FD90B60CD50CC18304600F014F904F1AA
:103A60000B00231D20F00700C31AD3D05A42E250A6
:103A7000D0E78C424B6816BF636013600C46EBE7DF
:103A80000C464968CCE7C41C24F00304A04205D0CE
:103A9000211A304600F008F80130CFD02560DBE76E
:103AA000A4020020A802002038B5064C00230546D9
:103AB0000846236000F032F9431C02D1236803B1A9
:103AC0002B6038BDA40300201F2938B504460D46DD
:103AD00004D9162303604FF0FF3038BD426C12B199
:103AE00052F821304BB9204600F030F82A46014602
:103AF0002046BDE8384000F017B8012B0AD0591C09
:103B000003D1162303600120E7E7002442F8254093
:103B1000284698470020E0E7024B01461868FFF767
:103B2000D3BF00BF2002002038B5074C0023054654
:103B300008461146236000F0D9F8431C02D12368DF
:103B400003B12B6038BD00BFA403002000F0BEB855
:103B500010B50C46B1F90E1000F096F80028ABBF76
:103B6000636DA3891B1823F48053ACBF6365A381E5
:103B700010BD2DE9F0411F468B89DB0505460C463B
:103B8000164605D502230022B1F90E1000F068F8A0
:103B9000A389B4F90E1023F48053A38132463B4627
:103BA0002846BDE8F04100F017B810B50C46B1F951
:103BB0000E1000F055F8431CA38915BF606523F46F
:103BC000805343F48053A38118BFA38110BDB1F982
:103BD0000E1000F013B8000038B5074C0546084633
:103BE0001146002222601A4600F0A6F8431C02D1BA
:103BF000236803B12B6038BDA403002038B5064C00
:103C0000002305460846236000F050F8431C02D10B
:103C1000236803B12B6038BDA403002038B5074CDE
:103C20000023054608461146236000F047F8431C70
:103C300002D1236803B12B6038BD00BFA40300206C
:103C400038B5064C002305460846236000F046F8C8
:103C5000431C02D1236803B12B6038BDA4030020AC
:103C600038B5074C054608461146002222601A4620
:103C700000F044F8431C02D1236803B12B6038BD27
:103C8000A40300207047704738B5074C0546084626
:103C90001146002222601A4600F038F8431C02D177
:103CA000236803B12B6038BDA4030020024B5822C7
:103CB0001A604FF0FF307047A4030020024B5822D7
:103CC0001A604FF0FF307047A4030020024B5822C7
:103CD0001A604FF0FF307047A4030020024B5822B7
:103CE0001A600020704700BFA4030020024B582236
:103CF0001A604FF0FF307047A4030020024B582297
:103D00001A604FF0FF307047A4030020024B582286
:103D10001A604FF0FF307047A4030020044A0549A1
:103D20001368002B08BF0B461844106018467047F4
:103D3000AC020020A8030020024B58221A604FF06A
:103D4000FF307047A4030020FEE700BFF8B500BFB6
:103D5000F8BC08BC9E467047F8B500BFF8BC08BC6C
:083D60009E46704700000000C0
:103D6800706361393638355F7365745F70776D5F7E
:103D78006672657175656E637900000070636139FC
:103D88003638355F696E6974000000007063613908
:103D98003638355F7365745F6368616E6E656C5F36
:103DA80070776D5F74696D657300000070636139C9
:103DB8003638355F7365745F6368616E6E656C5F16
:103DC800647574795F6379636C65000000000200B4
:103DD80004000500070009000B000C000E0010008D
:103DE800120014001500170019001B001C001E000B
:103DF8002000220024002500270029002B002D0088
:103E08002F0031003400360038003B003D004000F0
:103E18004200450048004B004D0050005300570039
:103E28005A005D006100640067006B006F0073005A
:103E380076007A007E00830087008B009000940053
:103E480099009D00A200A700AC00B100B600BB001D
:103E5800C100C600CC00D100D700DD00E300E900B6
:103E6800EF00F600FC0003010901100117011E0113
:103E780025012C0134013B0143014A0152015A0139
:103E880062016A0173017B0184018C0195019E0125
:103E9800A701B001BA01C301CD01D701E001EA01D0
:103EA800F501FF01090214021F022A02350240022D
:103EB8004B02570262026E027A02860292029E0248
:103EC800AB02B802C402D102DE02EC02F902070317
:103ED8001503220331033F034D035C036B037A038D
:103EE80089039803A703B703C703D703E703F703B7
:103EF8000804180429043A044B045D046E04800481
:103F08009204A404B604C904DB04EE0401051505F3
:103F180028053C054F05630578058C05A105B50501
:103F2800CA05E005F5050B06200636064D066306AC
:103F38007A069106A806BF06D606EE0606071E07ED
:103F480036074F07680781079A07B307CD07E707C2
:103F580001081B08350850086B088608A208BD0828
:103F6800D908F50812092E094B0968098509A3091A
:103F7800C109DF09FD091B0A3A0A590A780A980A91
:103F8800B70AD70AF70A180B380B590B7A0B9C0B90
:103F9800BE0BDF0B020C240C470C6A0C8D0CB00C0A
:103FA800D40CF80C1C0D410D660D8B0DB00DD60D03
:103FB800FB0D210E480E6E0E950EBD0EE40E0C0F75
:103FC800340F5C0F850FAD0FD70FFF0F7063643888
:103FD8003534345F696E697400000000A086010002
:103FE800400D0300801A060000350C0040420F0007
:103FF80080841E0000093D0000127A000024F400AD
:1040080000366E010048E801006CDC020000000088
:104018000000000001020304060708090000000070
:10402800010203046672657175656E6379203E3D11
:10403800203234002E2E2F447269766572732F4316
:104048006F6D706F6E656E74732F7063613936387B
:10405800352F706361393638352E630066726571A5
:1040680075656E6379203C3D20313532360000009D
:1040780068616E646C652D3E6932635F68616E6469
:104088006C6520213D204E554C4C00006368616EE4
:104098006E656C203C203136000000006F6E5F7446
:1040A800696D65203C3D2034303936006F66665FA7
:1040B80074696D65203C3D203430393600000000BD
:1040C800647574795F6379636C65203E3D20302E9A
:1040D80030000000647574795F6379636C65203C17
:1040E8003D20312E3000000068616E646C652D3E05
:1040F8007370695F68616E646C6520213D204E5560
:104108004C4C00002E2E2F447269766572732F4333
:104118006F6D706F6E656E74732F706364383534AD
:10412800342F706364383534342E630068616E64EC
:104138006C652D3E646E635F706F727420213D2044
:104148004E554C4C0000000068616E646C652D3E55
:104158006E7273745F706F727420213D204E554CDF
:104168004C00000068616E646C652D3E6E7363657B
:104178005F706F727420213D204E554C4C0000003A
:104188002E2E2F5372632F6932632E6300000000B6
:104198002E2E2F5372632F6D61696E2E63000000FF
:1041A8002E2E2F5372632F7370692E630000000048
:1041B8002E2E2F5372632F74696D2E63000000003A
:1041C8002C2066756E6374696F6E3A200061737394
:1041D800657274696F6E2022257322206661696C8E
:1041E80065643A2066696C6520222573222C206C50
:1041F800696E65202564257325730A002402002052
:10420800232D302B2000686C4C00656667454647B7
:10421800003031323334353637383941424344453A
:1042280046003031323334353637383961626364A9
:1042380065660000000000000000000000000000AB
:104248000000000000000000000000000000000066
:104258000000000000000000000000000000000056
:104268000000000000000000000000000000000046
:104278000000000000000000000000000000000036
:104288000000000000000000000000000000000026
:0842980000000000000000001E
:0842A000B50100080000000058
:0842A800910100080000000074
:1042B000B40200208000010000030020000000483C
:1042C0000001000000000048100000000004004849
:1042D00001000000000000000000000000000000DD
:1042E00000000000000000000000000000000000CE
:1042F0000000000000000000C0E0F0F8FCFCFEFF41
:10430000FCE00000000000000000000000000000D1
:10431000000000000000000000000000000000009D
:10432000000000000000000000000000000000008D
:1043300000000000000000F8F8F8F8F8F8F8F8F8C5
:10434000F8F8F8F0F0E0E0C080C0FCFFFFFFFF7F6E
:104350003F7FFFFFFFFFFF000000000000000000A4
:10436000000000000000000000000000000000004D
:10437000000000000000000000000000000000003D
:104380000000000000000000000000000F1F3F7F41
:10439000FFFFFFFFFFFFFFFFE7C7C7878F9F9FFF5D
:1043A000FFFFC1C0E0FCFFFFFFFFFFFCFCFCFCFEC9
:1043B000FEFEFCFCF8F8F0E0C0C0000000000000C9
:1043C00000000000000000000000000000000000ED
:1043D00000000000000000000000000000000000DD
:1043E00000000080C0E0F1FBFFFFFFFFFF7F1F0F19
:1043F0000F87E7FFFFFF1F1F3FF9F8F8F8F8F8F8FD
:10440000FDFFFFFFFFFFFFFFFFFF7F3F0F070100E3
:10441000000000000000000000000000000000009C
:10442000000000000000000000000000000000008C
:104430000000000000F0FEFFFFFFFFFFFFFFFFFF97
:10444000FFFE7E3F3F0F1FFFFFFFFCF0E0F1FFFF8D
:10445000FFFFFFFCF001010101010101010000006B
:10446000000000000000000000000000000000004C
:10447000000000000000000000000000000000003C
:104480000000000000000000000303030303030317
:10449000030101010100000000000000030F1F3FA5
:1044A0007F7FFFFFFFFF7F7F1F03000000000000F2
:1044B00000000000000000000000000000000000FC
:1044C00000000000000000000000000000093D00A6
:1044D00024020020000000005C4200087C4200082A
:1044E0003C42000800000000000000000000000046
:1044F00000000000000000000000000000000000BC
:1045000000000000000000000000000000000000AB
:10451000000000000000000000000000000000009B
:10452000000000000000000000000000000000008B
:08453000000000000000000083
:0400000508002D11B1
:00000001FF
